{
    "hash": "72e7fd57c2adb1ed2305c4247486ff79aec363296f02ec65be141904f80d214e",
    "hex": "0200000000010102f88529b2209c66ddc676cbbb4f60469d6bff231021adac57a0ccf8e0e9ffc60100000000fdffffff0265000000000000001600144b47c798d12edd17dfb4ea98e5447926f664731ca523000000000000160014f1f22fbcff25f9d10922a155082f33de50d9c3cd0247304402205b284e74ffd399c1cf5446082a68025a6bf9a3e49e94177de44e6d8b4cd6d6a602205eea19d0302e41b8bbac9427e30e88e23875bd47be65572da374df7fbdd479220121032f5cc5c735e61a51119a907a0cbece5077c7e1362e322ceb9fbf75ffb9adb5283df21700",
    "version": "02000000",
    "txInVector": "0102f88529b2209c66ddc676cbbb4f60469d6bff231021adac57a0ccf8e0e9ffc60100000000fdffffff",
    "txOutVector": "0265000000000000001600144b47c798d12edd17dfb4ea98e5447926f664731ca523000000000000160014f1f22fbcff25f9d10922a155082f33de50d9c3cd",
    "locktime": "3df21700"
}
